:080000000C9443000C94000075
:100008000C9400000C9400000C9400000C94000068
:100018000C9400000C9400000C9400000C948D00CB
:100028000C948C000C948B000C9400000C94000031
:100038000C9400000C9400000C9400000C94000038
:100048000C9400000C9400000C94000000000000C8
:1000580020256620200053746F70200A0D002D4E55
:10006800414E000001002D4E414E00494E46000011
:10007800040004005400010060026C000000F894C1
:10008800EE27ECBBF1E0F5BFE5BF8DE0A2E0BB27B2
:10009800ED938A95E9F780E098E0A0E6ED93019763
:1000A800E9F7E8E7F0E085919591009761F0A5916F
:1000B800B59105901590BF01F00105900D9201973B
:1000C800E1F7FB01F0CFEFE5EDBFE8E0EEBFC0E6FA
:1000D800D2E00C94B900F2010895AA931A930A93F6
:1000E800EA81E064E7B98BE18A95F1F7369A349BA7
:1000F800FECF349A04B115B1F12FE0E0DF01E02F13
:10010800F0E0EA0FFB1F198108810C94BC011895D7
:100118001895EA93FA93EFB7EA93F20131962F0113
:10012800E991EFBFF991E99118951A930A9300E0C4
:1001380010E000E010E00C32E1E01E079CF485E8D6
:100148008A95F1F7949A85E88A95F1F7A89885E851
:100158008A95F1F7949885E88A95F1F7A89A0F5F40
:100168001F4FE9CF09911991089500E010E020E0B0
:1001780030E050E0E0E0EBB9E8E0EAB9E6E8E0BDFD
:10018800ECE0E9B9E0E0E0BDEFBDE2E0EEBDE0E0C3
:10019800EDBDECBDE7BDE6BDEBBDEABDE9BDE8BD23
:1001A800E4E0E9BFE0E4E7B9E5E8E6B9E0E0E0BFAC
:1001B8007894A59AB89AA09AA19A8E988D98BB9A85
:1001C8006297E0E0EA83EB83E0E4EC83EFE3ED831E
:1001D8000E94D705EE87FF87688B798BAE85BF8530
:1001E80088899989E0E0F0E060EA70E40E94AD0750
:1001F800DF01CB01EE85FF85688979890E94520865
:100208000E94EF050E94F4050E94F9050E94520819
:10021800EE83FF83688779875EDF9F010E94FE0572
:1002280098F4D901A01BB10BAA36E0E0BE0718F07C
:100238000E94FE0508F006C022970E94D7050E947A
:1002480005062296A99A3CC0D901A01BB10BA43778
:10025800E0E0BE0718F00E94180608F029C0E9E49B
:10026800ECBFD901A01BB10BA131E1E0BE0718F02A
:100278000E94180608F01AC02297A0E02EDFE88333
:10028800F9830E941F06DF01CB01E0E0F0E060E89F
:1002980074E40E945208A3E3B3E383EB9FE30E9454
:1002A80004080E9405060E9424062296A99808C000
:1002B800D901A01BB10BA032E1E0BE0708F089010B
:1002C800969A86990CC0EEE5F0E0FA93EA9380E0FE
:1002D8000E94A9042296A0E5B6E40E940407859925
:1002E80004C0C09A22DFC09802C09498A898A4E6D7
:1002F800B0E00E940407AE85BF8588899989EBE73D
:10030800F4E16EEA7EE30E94970809F008F414C04D
:10031800AE81BF8188859985E0E0F0E060EA71E40C
:100328000E94970848F40E94F905E0E0F0E060E7D1
:1003380071E40E94970808F004C0A99AF6DEA9980B
:1003480002C09798A89862963BCFFFCFAA935D9B6F
:10035800FECFE881ECB921960895BA93AA93AA81B1
:10036800F5DFA881B981ED91FD913196FE93EE9369
:10037800239608950E942906E0E8EA83EFE3EB83D9
:100388000E945809EE85FF85EF3FAFEFFA0749F461
:10039800E885F985FA93EA93A6E6B0E00E94160587
:1003A800B7C0EF3FAFE7FA0749F4E885F985FA9354
:1003B800EA93A7E6B0E00E941605AAC0AB85A7306D
:1003C80010F0E6E0EB871B85E12F1150E03019F0C3
:1003D8000E943006F9CFEC85FD856E857F850E94E9
:1003E800520921F430E00E9430062DC03B850E945E
:1003F8003F0609F008F40BC00E9430060E943F0631
:1004080028F00E944A060E944F06F8CF0DC00E94AD
:100418003F0640F40E944A060E945B060E9462065C
:100428003150F5CF0E943006EC85FD856E857F85BD
:100438000E9467060E9462060E943F0620F00E9402
:100448004A060E944F0610E0EB85E117A8F1AC813F
:10045800BD818E819F810E946E060E946706DF0122
:10046800CB010E94FF04EC83FD836E837F830E948F
:100478004A060E9452080E9441070E2F0E947506E4
:100488000E947C06FF27662777270E947A07AC819F
:10049800BD818E819F810E9404080E944A060E94A5
:1004A80081060E946206E12F1F5FE03069F60E9414
:1004B8007506EEE2EC93C8CF0E9486063197AA85AE
:1004C800A08330302CF43195A885B985EDE203C0BE
:1004D800A885B985EBE2EC930E9486060E94860601
:1004E8003197BF01A32FEAE00E94DC08E05DDB0141
:1004F800EC930E9486063197BF01A32FEAE00E9481
:100508000609E05DDB01EC93A885B985E0E0EC9392
:100518000E945F0960960895BA93AA93EF9761972E
:100528000E94560910E0FE01E85AFF4F0190F08141
:10053800E02DE887F987FE01EA5AFF4F0190F08124
:10054800E02DEE83FF83AE81BF81E0E0F0E0ED9324
:10055800FC93DE01A45ABF4FED91FD913196FE93B5
:10056800EE933197E4912E2FE03009F4E5C1E12FA5
:10057800E03039F4253211F411E002C00E948C06F3
:10058800DAC1E130C1F4253219F40E948C06D2C1D7
:1005980012E0E0E0ED8B00E02D3211F401E0CBC178
:1005A8002B3219F4EBE2ED8BC6C1203219F4E0E2EC
:1005B800ED8BC1C102C0E23039F450E013E02033C2
:1005C80011F40068B8C102C0E33091F4203310F090
:1005D8002A3308F007C0AAE05A9F502DE22FE053B3
:1005E8005E0FA9C140E02E3211F414E0A4C10FC07F
:1005F800E43099F4203310F02A3308F008C0006280
:10060800AAE04A9F402DE22FE0534E0F94C12C36AA
:1006180019F4026015E08FC103C0E53009F08BC101
:10062800E22FE33659F40E9493060E949A060E942C
:100638009306A481AA930E94A1067CC1E53411F017
:10064800E53609F403C0E63609F048C0FE0176969F
:10065800EE87FF870E94A7060E9426090E94EF05E1
:100668000E94AE06AD85AA2332F0AD89AB3259F0AF
:10067800A03281F017C00E94B0060E940E070E94A7
:10068800EF05EDE2ED8B07FF05C0ED89EA930E94C7
:10069800A10608C0EE85FF853196EE87FF87319762
:1006A800AD89A08305FF46E0263651F40E94B006C6
:1006B8000E943B094A93AB89BC890E943C0509C04A
:1006C8000E94B0060E943B094A932A93AC89BD89CF
:1006D80051DEFE0176960E94B5061EC0E33739F456
:1006E8000E94AE060E94BD060E94B5060EC0E03705
:1006F800C1F40E94AE060E94BD06EE87FF87AE8554
:10070800BF850E942F051E2F08600F77403011F01B
:10071800411708F001C0142F40E0E0E0EC8B30E016
:100728006DC0E43611F0E93611F4046002C0E53713
:10073800A1F4EAE0EC8B01FF08C0E0E0FAEC6AE91A
:100748007BE30E94C2061AE022C0E0E1F7E260E023
:1007580070E00E94C20615E01AC0E83511F408607E
:1007680003C0E83709F0E6C0E0E1EC8B01FF08C000
:10077800E0E0F0E060E070E10E94C20618E007C027
:10078800E0E0F0E160E070E00E94C20614E0403072
:1007980011F00F7701C041E001FF08C00E94AE06CA
:1007A8000E94A70614960E9426090FC002FF07C0E0
:1007B8000E94AE060E94BD060E94C90806C00E949B
:1007C800AE060E94BD0666277727EA87FB876C87F7
:1007D8007D8702FF12C0AD85AA2342F40E94B006AD
:1007E8000E94BB080E94EF05EDE2ED8BED89E03039
:1007F80019F01F5F4F5F01C00B7F342F00FD14C03D
:10080800151710F4351708F00FC007FF08C002FFCE
:1008180004C00B7F2D89115001C020E301C020E2E4
:100828000E948C065150ECCF141790F4006102FF1F
:1008380006C00E94C70609F0515011504150E0E32C
:10084800EA930E94A106503009F051504150ECCF74
:10085800312FEC89E030B9F43030A1F003FF06C045
:10086800EE85FF852591EE87FF8705C0AE85BF859C
:100878002D91AE87BF870E948C06503009F05150E9
:100888003150EACF4DC00E94D9060E94E1082E2FB0
:100898002A3030F003FF02C0295C01C0295A01C088
:1008A800205D04FD1FC0213350F40E942406A130AE
:1008B800E0E0BE07E0E08E07E0E09E0709F40BC029
:1008C800431740F4531710F000FF01C010C020E296
:1008D80007FF08C020E3006102FF04C00E94C706AA
:1008E80009F051500E948C06503009F05150315097
:1008F8000E94D9060E9412090E94EF05EC890E9405
:100908002406FF27662777270E94E1080E94C2066F
:10091800E889F9896A897B890E94520909F0B3CF6D
:1009280000FF08C0503031F05150E0E2EA930E94D5
:10093800A106F8CF10E00DCEAE81BF810E9422093A
:100948000E945D09EF966F960895FF92F82E2697FC
:100958001A930A93DE0114960E94B7088D01E0E00D
:10096800EC83ED83EE83EF83DE0118960E94B708CF
:100978000E942209FA93EA931A930A93E1EBF1E0B1
:10098800FA93EA93DE011896C7DD19810881289643
:10099800FF9008950E9440097B816A81F981E8816E
:1009A80077FB770F67FD7160972F9E5781F078F07E
:1009B800983190F4AA27BB27882708948795B7957C
:1009C800A7959A95D1F7EA23FB23682305C0E894F5
:1009D8007727EE27FF2766276F77769508F46068F4
:1009E80077F9A991B99189919991EA17FB07680755
:1009F800790797FB08950E9440090E9431090E94D7
:100A0800CE040E94360919F40E942C0909C0E6F7A1
:100A18000E942C09A0E0B0E080E89FE30E94AD07A7
:100A280024960895BA93AA93E991F991A991B99155
:100A3800CD0105900D920020E1F7FC010895BA93CD
:100A4800AA93A991B991EE27FF276D91662311F01A
:100A58003196FBCF0895BA93AA93AA27BB27E991A9
:100A6800F9910590002011F01196FBCFFD01089532
:100A7800ECD0E0E0EA83EFE3EB831A930A93EB858B
:100A8800FC85EF3FAFEFFA0731F494D1AEE6B0E062
:100A98000E94160584C0EF3FAFE7FA0731F48AD108
:100AA800AFE6B0E00E9416057AC0AC85AA2352F4DE
:100AB800E985FA856B857C850E940E0780D184D1F3
:100AC800EDE2EC93A885A73010F0E6E0E8871885FA
:100AD800E12F1150E03021F07ED1FCD081D1F8CF48
:100AE80084D10E94B4076BD110E0E0E0F0E060E848
:100AF8007FE376D17AD10E94970868F06CD1D7D07D
:100B08006FD11F5F173230F055D1A3E7B0E00E94D4
:100B1800160545C0EFCF103021F456D1E0E3EC9331
:100B28001DC0E12F1150E030C9F055D1D3D0CBD042
:100B3800DF01CB010E94FF0453D157D10E94520814
:100B48000E9441070E2F40D1D3D0F0E044D173D09A
:100B58000E94040850D1D1D032D1E3CFE885E030EB
:100B6800D1F032D1EEE2EC93E885E150E887EF5F0F
:100B780091F041D19CD023D1E985FA856B857C859C
:100B88000E9441070E2F20D1B3D0F0E034D153D0CA
:100B9800B4D015D1E9CFAE81BF81E0E0EC931981E3
:100BA80008812D960895A0E00E947100E883F983DA
:100BB8000E94C9080E947A07DF01CB01E0E0F0E05B
:100BC80060E874E40E945208A0E0B0E080EA90E493
:100BD8000E9404080895EA87FB876C877D8708953B
:100BE800EA81FB816C817D810895AA85BB858C850E
:100BF8009D850895D901A01BB10BA337E0E0BE077E
:100C08000895E88BF98B6A8B7B8BE8E5F0E0FA9323
:100C1800EA93EA89FB896C897D890E943B0984E013
:100C28000E94A90426960895D901A01BB10BAF31E3
:100C3800E1E0BE0708950E94C9080E947A07089556
:100C4800A889B9898A899B890895BA93AA93249710
:100C5800E0E0E883E9830895AC81BD818E819F81BE
:100C6800E0E0F0E060E271E40E940408EC83FD83B8
:100C78006E837F830895EC81FD816E817F81AC85D1
:100C8800BD858E859F850E9497080895AC85BD8592
:100C98008E859F850895EDECFCEC6CEC7DE30E945D
:100CA8000408EC87FD876E877F873F5F0895E0E043
:100CB800F0E060E271E40E9404080895EC87FD8783
:100CC8006E877F870895A0E0B0E080E09FE30E94F0
:100CD800B4070895EDECFCEC6CEC7DE30E9404088D
:100CE8000895A885B9851196A887B9871197089599
:100CF800E02FE05DEC93E02F08950E9445090E94E3
:100D0800AD070895E885F9853196E887F98708954C
:100D18002A93AF81B885E985FA8509950895FE017A
:100D2800E65AFF4F0190F081E02D08953497DE01D7
:100D3800A65ABF4FED93FC930895AF81B885E98516
:100D4800FA8509950895DE01A65ABF4F0D90BC910A
:100D5800A02D0895E4DFEACFEA85FB856C857D85C3
:100D68000895EE87FF87AE85BF850E9423051E2F55
:100D78000895E9DF14960E9422090895E88BF98BFB
:100D88006A8B7B8B08950B7FED89EA93DE01A95A64
:100D9800BF4F0D90BC91A02DFE01E75AFF4F019067
:100DA800F081E02D099550300895E889F9896A891C
:100DB8007B891BCFEE81FF81FA93EA930895E98737
:100DC800FA876B877C870895AE81BF811196AE83C1
:100DD800BF8311970895AA81BB818C819D81089555
:100DE800EA83FB836C837D830895FADEA985BA853F
:100DF8008B859C850895A985BA858B859C850895E2
:100E0800109639F0A89580ED97E00197F1F71197C2
:100E1800C9F7089530976040704009F070580895F8
:100E2800552342F4503811F4E0FF04C03196691F8D
:100E3800791F6BF050E8572711F45F93CFC05F3FDD
:100E480031F0660F000C57956795752F08955F93DD
:100E580000200AF0CFC0C8C050E8192E1522880F0C
:100E6800991F9527550F879550E8072E0522660F7D
:100E7800771F7527550F67950895689401C0E89402
:100E88005F93F2DF703818F07F3F08F4A7C056E18F
:100E9800571BAAF4519558300EF4593030F0EFEF43
:100EA800FFEF6FEF7FE777F91AC077275523B9F07F
:100EB800EE0FFF1F661F771F5A95D1F710C07727CF
:100EC800583028F0EF2FF62F672F5850F9CF5523B9
:100ED80031F076956795F795E7955A95D1F7002003
:100EE8000AF445D15F910895689401C0E894309759
:100EF80060407040B1F0002426F0772312F400948B
:100F080036D1172E7EE1112032F07A95EE0FFF1FB1
:100F1800661F111CF9CFEF2FF62F612D5F938ADF23
:100F28005F9108954F93AF01FD01DA01AB01BC0158
:100F3800CA01402D012C142E4F910895EA0FFB1F72
:100F4800681F0895E095F0956095EF5FFF4F6F4F2C
:100F580008955F9381DF903871F150E8152604C039
:100F68005F937ADF903839F1703821F1572F591B88
:100F78002BF112F4D7DFFACF583118F0AA27BB2784
:100F88008827583028F0AB2FB82F88275850F9CF2A
:100F9800552329F08695B795A7955A95D9F7502DD9
:100FA800512572F0CBDF38F46795F795E79573957F
:100FB80013F420C0B7DF3EDF5F910895D8F7FBCF69
:100FC800EA1BFB0B680B51F010F40094BBDF66239F
:100FD80092F3EE0FFF1F661F7A95CBF7EE27FF27D8
:100FE800662777275F910895EFEFFFEF6FE77FEFB1
:100FF8005F910895EFEFFFEF6FE77FE75F91089547
:101008005F932ADF703851F3903841F30124089434
:10101800791F23F41CF300203AF3ECCF0F921F93AF
:101028002F933F934F93112722279927689FA00159
:101038008F9F302D410D591F6B9F300D411D591F3A
:101048008E9F27D0BF9F25D06A9F23D0BE9F1DD0DB
:10105800AF9F1BD0AE9F110D291F391F491F591F64
:10106800E32FF42F652F522F4F913F912F911F910E
:101078000F9066232AF0550FEE1FFF1F661F02C050
:1010880073954BF2CDDE5F910895100D211D391F28
:1010980002C0200D311D491F591F08955F93DCDEE2
:1010A800703821F411200AF49FCFA4CF903809F4A6
:1010B80095CF01240894970B1BF4D4F30020F3CFA9
:1010C800792F1F932F933F934F9311241127222792
:1010D80033274427552790E2AE17BF0786074107F5
:1010E80030F0AE1BBF0B860B410B089401C08894EF
:1010F800551F221F331F111CAA1FBB1F881F441F07
:101108009A9551F7F901612D4F913F912F911F91B8
:10111800662332F0550FEE1FFF1F661F7A9543F2C4
:101128007FDE5F91089599239AF0772342F097170D
:1011380048F029F4AE17BF07860720F031F09894DD
:101148008894089598940894089518948894089514
:101158007723C2F7971798F3A9F7EA17FB076807E9
:1011680088F399F3ECCF0024AF0DB01D0895F095E6
:1011780060957095E195FF4F6F4F7F4F0895FE2F53
:10118800FF0FFF0B6F2F7F2F08956F2F660F660BD2
:10119800762F0895002498E0AA0F001C0E1A10F468
:1011A8000E0E01C0A1609A95B9F7EA2FA02D0895F7
:1011B80039D0F0DF0EF4E19508953F934F935F9394
:1011C800002411244427552730E2AA0FBB1F881F8B
:1011D800991F001C111C441F551F0E1A1F0A460B8D
:1011E800570B28F40E0E1F1E461F571F01C0A16083
:1011F8003A9559F7FD01BC01D001CA015F914F91A1
:101208003F910895E894A7FF02C0A1956894E7FD6F
:10121800E195C0DFEA2F0EF4E1950895CEDFFD01D8
:10122800BC010895E894E7FF02C0E1956894A7FF20
:1012380004C0A19500F8039400FA0895ED91FC917B
:1012480011970895ED91FD916D917C9113970895F3
:10125800E881F9816A817B810895A881B9818A81B1
:101268009B810895E883F9836A837B8308957A9341
:101278006A93FA93EA9308959A938A93BA93AA93EE
:101288000895182E862F612D192E972F712D1B2E3C
:10129800BF2FF12D1A2EAE2FE12D08953097604003
:1012A800704008955A934A933A932A931A930A934B
:1012B80008955D814C813B812A81198108810895B7
:00000001FF
