:080000000C9433000C94000085
:100008000C9400000C9400000C9400000C94000068
:100018000C9400000C9400000C9400000C94000058
:100028000C9400000C9400000C9400000C94000048
:100038000C9400000C9400000C9400000C94000038
:100048000C9400000C9400000C9400001027E803A6
:1000580064000A0001000010000110000100F8947B
:10006800EE27ECBBF1E0F5BFE5BF8DE0A2E0BB27D2
:10007800ED938A95E9F780E098E0A0E6ED93019783
:10008800E9F7EFE5EDBFE8E0EEBFC0E6D2E00C949B
:100098004D00E0E0EABBEBBBE7BBE8BBE4BBE5BB7C
:1000A800E1BBE2BBE3BFE2BFECBFEFBDEEBDEDBD20
:1000B800ECBDE7BDE6BDEBBDEABDE9BDE8BDE2BD0F
:1000C800E5BDE4BDE3BDE9BFE5BFE4BFEBB9E8E0EA
:1000D800EAB9E6E8E0BDE0E0E0BDE3E3E9B9E0E87D
:1000E800E8B9E0E0E0BFE6B9EDB9E6BFFFCFFFCF82
:00000001FF
